{
	"dabbcoin_ico.sol": {
		"dabbcoin_ico": {
			"abi": [
				{
					"constant": true,
					"inputs": [],
					"name": "total_dabbcoins_bought",
					"outputs": [
						{
							"name": "",
							"type": "uint256"
						}
					],
					"payable": false,
					"stateMutability": "view",
					"type": "function"
				},
				{
					"constant": false,
					"inputs": [
						{
							"name": "investor",
							"type": "address"
						},
						{
							"name": "dabbcoins_to_sell",
							"type": "uint256"
						}
					],
					"name": "sell_dabcoins",
					"outputs": [],
					"payable": false,
					"stateMutability": "nonpayable",
					"type": "function"
				},
				{
					"constant": false,
					"inputs": [
						{
							"name": "investor",
							"type": "address"
						},
						{
							"name": "inr_invested",
							"type": "uint256"
						}
					],
					"name": "buy_dabbcoins",
					"outputs": [],
					"payable": false,
					"stateMutability": "nonpayable",
					"type": "function"
				},
				{
					"constant": true,
					"inputs": [
						{
							"name": "investor",
							"type": "address"
						}
					],
					"name": "equity_in_inr",
					"outputs": [
						{
							"name": "",
							"type": "uint256"
						}
					],
					"payable": false,
					"stateMutability": "view",
					"type": "function"
				},
				{
					"constant": true,
					"inputs": [
						{
							"name": "investor",
							"type": "address"
						}
					],
					"name": "equity_in_dabbcoins",
					"outputs": [
						{
							"name": "",
							"type": "uint256"
						}
					],
					"payable": false,
					"stateMutability": "view",
					"type": "function"
				},
				{
					"constant": true,
					"inputs": [],
					"name": "inr_to_dabbcoin",
					"outputs": [
						{
							"name": "",
							"type": "uint256"
						}
					],
					"payable": false,
					"stateMutability": "view",
					"type": "function"
				},
				{
					"constant": true,
					"inputs": [],
					"name": "max_dabbcoins",
					"outputs": [
						{
							"name": "",
							"type": "uint256"
						}
					],
					"payable": false,
					"stateMutability": "view",
					"type": "function"
				}
			],
			"devdoc": {
				"methods": {}
			},
			"evm": {
				"assembly": "    /* \"dabbcoin_ico.sol\":46:1773  contract dabbcoin_ico{\r... */\n  mstore(0x40, 0x80)\n    /* \"dabbcoin_ico.sol\":148:155  1000000 */\n  0xf4240\n    /* \"dabbcoin_ico.sol\":120:155  uint public max_dabbcoins = 1000000 */\n  0x0\n  sstore\n    /* \"dabbcoin_ico.sol\":233:237  1000 */\n  0x3e8\n    /* \"dabbcoin_ico.sol\":203:237  uint public inr_to_dabbcoin = 1000 */\n  0x1\n  sstore\n    /* \"dabbcoin_ico.sol\":329:330  0 */\n  0x0\n    /* \"dabbcoin_ico.sol\":292:330  uint public total_dabbcoins_bought = 0 */\n  0x2\n  sstore\n    /* \"dabbcoin_ico.sol\":46:1773  contract dabbcoin_ico{\r... */\n  callvalue\n    /* \"--CODEGEN--\":8:17   */\n  dup1\n    /* \"--CODEGEN--\":5:7   */\n  iszero\n  tag_1\n  jumpi\n    /* \"--CODEGEN--\":30:31   */\n  0x0\n    /* \"--CODEGEN--\":27:28   */\n  dup1\n    /* \"--CODEGEN--\":20:32   */\n  revert\n    /* \"--CODEGEN--\":5:7   */\ntag_1:\n    /* \"dabbcoin_ico.sol\":46:1773  contract dabbcoin_ico{\r... */\n  pop\n  dataSize(sub_0)\n  dup1\n  dataOffset(sub_0)\n  0x0\n  codecopy\n  0x0\n  return\nstop\n\nsub_0: assembly {\n        /* \"dabbcoin_ico.sol\":46:1773  contract dabbcoin_ico{\r... */\n      mstore(0x40, 0x80)\n      jumpi(tag_1, lt(calldatasize, 0x4))\n      calldataload(0x0)\n      0x100000000000000000000000000000000000000000000000000000000\n      swap1\n      div\n      0xffffffff\n      and\n      dup1\n      0x2194ad88\n      eq\n      tag_2\n      jumpi\n      dup1\n      0x3899c96d\n      eq\n      tag_3\n      jumpi\n      dup1\n      0x73abaa03\n      eq\n      tag_4\n      jumpi\n      dup1\n      0x8e006896\n      eq\n      tag_5\n      jumpi\n      dup1\n      0x9c187b4b\n      eq\n      tag_6\n      jumpi\n      dup1\n      0xac61c7ea\n      eq\n      tag_7\n      jumpi\n      dup1\n      0xb5ca8f1d\n      eq\n      tag_8\n      jumpi\n    tag_1:\n      0x0\n      dup1\n      revert\n        /* \"dabbcoin_ico.sol\":292:330  uint public total_dabbcoins_bought = 0 */\n    tag_2:\n      callvalue\n        /* \"--CODEGEN--\":8:17   */\n      dup1\n        /* \"--CODEGEN--\":5:7   */\n      iszero\n      tag_9\n      jumpi\n        /* \"--CODEGEN--\":30:31   */\n      0x0\n        /* \"--CODEGEN--\":27:28   */\n      dup1\n        /* \"--CODEGEN--\":20:32   */\n      revert\n        /* \"--CODEGEN--\":5:7   */\n    tag_9:\n        /* \"dabbcoin_ico.sol\":292:330  uint public total_dabbcoins_bought = 0 */\n      pop\n      tag_10\n      jump(tag_11)\n    tag_10:\n      mload(0x40)\n      dup1\n      dup3\n      dup2\n      mstore\n      0x20\n      add\n      swap2\n      pop\n      pop\n      mload(0x40)\n      dup1\n      swap2\n      sub\n      swap1\n      return\n        /* \"dabbcoin_ico.sol\":1501:1770  function sell_dabcoins(address investor, uint dabbcoins_to_sell)external{\r... */\n    tag_3:\n      callvalue\n        /* \"--CODEGEN--\":8:17   */\n      dup1\n        /* \"--CODEGEN--\":5:7   */\n      iszero\n      tag_12\n      jumpi\n        /* \"--CODEGEN--\":30:31   */\n      0x0\n        /* \"--CODEGEN--\":27:28   */\n      dup1\n        /* \"--CODEGEN--\":20:32   */\n      revert\n        /* \"--CODEGEN--\":5:7   */\n    tag_12:\n        /* \"dabbcoin_ico.sol\":1501:1770  function sell_dabcoins(address investor, uint dabbcoins_to_sell)external{\r... */\n      pop\n      tag_13\n      0x4\n      dup1\n      calldatasize\n      sub\n      dup2\n      add\n      swap1\n      dup1\n      dup1\n      calldataload\n      0xffffffffffffffffffffffffffffffffffffffff\n      and\n      swap1\n      0x20\n      add\n      swap1\n      swap3\n      swap2\n      swap1\n      dup1\n      calldataload\n      swap1\n      0x20\n      add\n      swap1\n      swap3\n      swap2\n      swap1\n      pop\n      pop\n      pop\n      jump(tag_14)\n    tag_13:\n      stop\n        /* \"dabbcoin_ico.sol\":1105:1468  function buy_dabbcoins(address investor,uint inr_invested)external\r... */\n    tag_4:\n      callvalue\n        /* \"--CODEGEN--\":8:17   */\n      dup1\n        /* \"--CODEGEN--\":5:7   */\n      iszero\n      tag_15\n      jumpi\n        /* \"--CODEGEN--\":30:31   */\n      0x0\n        /* \"--CODEGEN--\":27:28   */\n      dup1\n        /* \"--CODEGEN--\":20:32   */\n      revert\n        /* \"--CODEGEN--\":5:7   */\n    tag_15:\n        /* \"dabbcoin_ico.sol\":1105:1468  function buy_dabbcoins(address investor,uint inr_invested)external\r... */\n      pop\n      tag_16\n      0x4\n      dup1\n      calldatasize\n      sub\n      dup2\n      add\n      swap1\n      dup1\n      dup1\n      calldataload\n      0xffffffffffffffffffffffffffffffffffffffff\n      and\n      swap1\n      0x20\n      add\n      swap1\n      swap3\n      swap2\n      swap1\n      dup1\n      calldataload\n      swap1\n      0x20\n      add\n      swap1\n      swap3\n      swap2\n      swap1\n      pop\n      pop\n      pop\n      jump(tag_17)\n    tag_16:\n      stop\n        /* \"dabbcoin_ico.sol\":956:1073  function equity_in_inr(address investor)external constant returns(uint){\r... */\n    tag_5:\n      callvalue\n        /* \"--CODEGEN--\":8:17   */\n      dup1\n        /* \"--CODEGEN--\":5:7   */\n      iszero\n      tag_18\n      jumpi\n        /* \"--CODEGEN--\":30:31   */\n      0x0\n        /* \"--CODEGEN--\":27:28   */\n      dup1\n        /* \"--CODEGEN--\":20:32   */\n      revert\n        /* \"--CODEGEN--\":5:7   */\n    tag_18:\n        /* \"dabbcoin_ico.sol\":956:1073  function equity_in_inr(address investor)external constant returns(uint){\r... */\n      pop\n      tag_19\n      0x4\n      dup1\n      calldatasize\n      sub\n      dup2\n      add\n      swap1\n      dup1\n      dup1\n      calldataload\n      0xffffffffffffffffffffffffffffffffffffffff\n      and\n      swap1\n      0x20\n      add\n      swap1\n      swap3\n      swap2\n      swap1\n      pop\n      pop\n      pop\n      jump(tag_20)\n    tag_19:\n      mload(0x40)\n      dup1\n      dup3\n      dup2\n      mstore\n      0x20\n      add\n      swap2\n      pop\n      pop\n      mload(0x40)\n      dup1\n      swap2\n      sub\n      swap1\n      return\n        /* \"dabbcoin_ico.sol\":771:900  function equity_in_dabbcoins(address investor)external constant returns(uint){\r... */\n    tag_6:\n      callvalue\n        /* \"--CODEGEN--\":8:17   */\n      dup1\n        /* \"--CODEGEN--\":5:7   */\n      iszero\n      tag_21\n      jumpi\n        /* \"--CODEGEN--\":30:31   */\n      0x0\n        /* \"--CODEGEN--\":27:28   */\n      dup1\n        /* \"--CODEGEN--\":20:32   */\n      revert\n        /* \"--CODEGEN--\":5:7   */\n    tag_21:\n        /* \"dabbcoin_ico.sol\":771:900  function equity_in_dabbcoins(address investor)external constant returns(uint){\r... */\n      pop\n      tag_22\n      0x4\n      dup1\n      calldatasize\n      sub\n      dup2\n      add\n      swap1\n      dup1\n      dup1\n      calldataload\n      0xffffffffffffffffffffffffffffffffffffffff\n      and\n      swap1\n      0x20\n      add\n      swap1\n      swap3\n      swap2\n      swap1\n      pop\n      pop\n      pop\n      jump(tag_23)\n    tag_22:\n      mload(0x40)\n      dup1\n      dup3\n      dup2\n      mstore\n      0x20\n      add\n      swap2\n      pop\n      pop\n      mload(0x40)\n      dup1\n      swap2\n      sub\n      swap1\n      return\n        /* \"dabbcoin_ico.sol\":203:237  uint public inr_to_dabbcoin = 1000 */\n    tag_7:\n      callvalue\n        /* \"--CODEGEN--\":8:17   */\n      dup1\n        /* \"--CODEGEN--\":5:7   */\n      iszero\n      tag_24\n      jumpi\n        /* \"--CODEGEN--\":30:31   */\n      0x0\n        /* \"--CODEGEN--\":27:28   */\n      dup1\n        /* \"--CODEGEN--\":20:32   */\n      revert\n        /* \"--CODEGEN--\":5:7   */\n    tag_24:\n        /* \"dabbcoin_ico.sol\":203:237  uint public inr_to_dabbcoin = 1000 */\n      pop\n      tag_25\n      jump(tag_26)\n    tag_25:\n      mload(0x40)\n      dup1\n      dup3\n      dup2\n      mstore\n      0x20\n      add\n      swap2\n      pop\n      pop\n      mload(0x40)\n      dup1\n      swap2\n      sub\n      swap1\n      return\n        /* \"dabbcoin_ico.sol\":120:155  uint public max_dabbcoins = 1000000 */\n    tag_8:\n      callvalue\n        /* \"--CODEGEN--\":8:17   */\n      dup1\n        /* \"--CODEGEN--\":5:7   */\n      iszero\n      tag_27\n      jumpi\n        /* \"--CODEGEN--\":30:31   */\n      0x0\n        /* \"--CODEGEN--\":27:28   */\n      dup1\n        /* \"--CODEGEN--\":20:32   */\n      revert\n        /* \"--CODEGEN--\":5:7   */\n    tag_27:\n        /* \"dabbcoin_ico.sol\":120:155  uint public max_dabbcoins = 1000000 */\n      pop\n      tag_28\n      jump(tag_29)\n    tag_28:\n      mload(0x40)\n      dup1\n      dup3\n      dup2\n      mstore\n      0x20\n      add\n      swap2\n      pop\n      pop\n      mload(0x40)\n      dup1\n      swap2\n      sub\n      swap1\n      return\n        /* \"dabbcoin_ico.sol\":292:330  uint public total_dabbcoins_bought = 0 */\n    tag_11:\n      sload(0x2)\n      dup2\n      jump\t// out\n        /* \"dabbcoin_ico.sol\":1501:1770  function sell_dabcoins(address investor, uint dabbcoins_to_sell)external{\r... */\n    tag_14:\n        /* \"dabbcoin_ico.sol\":1614:1631  dabbcoins_to_sell */\n      dup1\n        /* \"dabbcoin_ico.sol\":1584:1600  equity_dabbcoins */\n      0x3\n        /* \"dabbcoin_ico.sol\":1584:1610  equity_dabbcoins[investor] */\n      0x0\n        /* \"dabbcoin_ico.sol\":1601:1609  investor */\n      dup5\n        /* \"dabbcoin_ico.sol\":1584:1610  equity_dabbcoins[investor] */\n      0xffffffffffffffffffffffffffffffffffffffff\n      and\n      0xffffffffffffffffffffffffffffffffffffffff\n      and\n      dup2\n      mstore\n      0x20\n      add\n      swap1\n      dup2\n      mstore\n      0x20\n      add\n      0x0\n      keccak256\n      0x0\n        /* \"dabbcoin_ico.sol\":1584:1631  equity_dabbcoins[investor] -= dabbcoins_to_sell */\n      dup3\n      dup3\n      sload\n      sub\n      swap3\n      pop\n      pop\n      dup2\n      swap1\n      sstore\n      pop\n        /* \"dabbcoin_ico.sol\":1693:1708  inr_to_dabbcoin */\n      sload(0x1)\n        /* \"dabbcoin_ico.sol\":1666:1682  equity_dabbcoins */\n      0x3\n        /* \"dabbcoin_ico.sol\":1666:1692  equity_dabbcoins[investor] */\n      0x0\n        /* \"dabbcoin_ico.sol\":1683:1691  investor */\n      dup5\n        /* \"dabbcoin_ico.sol\":1666:1692  equity_dabbcoins[investor] */\n      0xffffffffffffffffffffffffffffffffffffffff\n      and\n      0xffffffffffffffffffffffffffffffffffffffff\n      and\n      dup2\n      mstore\n      0x20\n      add\n      swap1\n      dup2\n      mstore\n      0x20\n      add\n      0x0\n      keccak256\n      sload\n        /* \"dabbcoin_ico.sol\":1666:1708  equity_dabbcoins[investor]/inr_to_dabbcoin */\n      dup2\n      iszero\n      iszero\n      tag_31\n      jumpi\n      invalid\n    tag_31:\n      div\n        /* \"dabbcoin_ico.sol\":1642:1652  equity_inr */\n      0x4\n        /* \"dabbcoin_ico.sol\":1642:1662  equity_inr[investor] */\n      0x0\n        /* \"dabbcoin_ico.sol\":1653:1661  investor */\n      dup5\n        /* \"dabbcoin_ico.sol\":1642:1662  equity_inr[investor] */\n      0xffffffffffffffffffffffffffffffffffffffff\n      and\n      0xffffffffffffffffffffffffffffffffffffffff\n      and\n      dup2\n      mstore\n      0x20\n      add\n      swap1\n      dup2\n      mstore\n      0x20\n      add\n      0x0\n      keccak256\n      0x0\n        /* \"dabbcoin_ico.sol\":1642:1708  equity_inr[investor] += equity_dabbcoins[investor]/inr_to_dabbcoin */\n      dup3\n      dup3\n      sload\n      add\n      swap3\n      pop\n      pop\n      dup2\n      swap1\n      sstore\n      pop\n        /* \"dabbcoin_ico.sol\":1745:1762  dabbcoins_to_sell */\n      dup1\n        /* \"dabbcoin_ico.sol\":1719:1741  total_dabbcoins_bought */\n      0x2\n      0x0\n        /* \"dabbcoin_ico.sol\":1719:1762  total_dabbcoins_bought -= dabbcoins_to_sell */\n      dup3\n      dup3\n      sload\n      sub\n      swap3\n      pop\n      pop\n      dup2\n      swap1\n      sstore\n      pop\n        /* \"dabbcoin_ico.sol\":1501:1770  function sell_dabcoins(address investor, uint dabbcoins_to_sell)external{\r... */\n      pop\n      pop\n      jump\t// out\n        /* \"dabbcoin_ico.sol\":1105:1468  function buy_dabbcoins(address investor,uint inr_invested)external\r... */\n    tag_17:\n        /* \"dabbcoin_ico.sol\":1219:1240  uint dabbcoins_bought */\n      0x0\n        /* \"dabbcoin_ico.sol\":1195:1207  inr_invested */\n      dup2\n        /* \"dabbcoin_ico.sol\":675:688  max_dabbcoins */\n      sload(0x0)\n        /* \"dabbcoin_ico.sol\":649:671  total_dabbcoins_bought */\n      sload(0x2)\n        /* \"dabbcoin_ico.sol\":633:648  inr_to_dabbcoin */\n      sload(0x1)\n        /* \"dabbcoin_ico.sol\":620:632  inr_invested */\n      dup4\n        /* \"dabbcoin_ico.sol\":620:648  inr_invested*inr_to_dabbcoin */\n      mul\n        /* \"dabbcoin_ico.sol\":620:671  inr_invested*inr_to_dabbcoin+total_dabbcoins_bought */\n      add\n        /* \"dabbcoin_ico.sol\":620:688  inr_invested*inr_to_dabbcoin+total_dabbcoins_bought <= max_dabbcoins */\n      gt\n      iszero\n        /* \"dabbcoin_ico.sol\":612:689  require(inr_invested*inr_to_dabbcoin+total_dabbcoins_bought <= max_dabbcoins) */\n      iszero\n      iszero\n      tag_33\n      jumpi\n      0x0\n      dup1\n      revert\n    tag_33:\n        /* \"dabbcoin_ico.sol\":1258:1273  inr_to_dabbcoin */\n      sload(0x1)\n        /* \"dabbcoin_ico.sol\":1243:1255  inr_invested */\n      dup4\n        /* \"dabbcoin_ico.sol\":1243:1273  inr_invested * inr_to_dabbcoin */\n      mul\n        /* \"dabbcoin_ico.sol\":1219:1273  uint dabbcoins_bought = inr_invested * inr_to_dabbcoin */\n      swap2\n      pop\n        /* \"dabbcoin_ico.sol\":1314:1330  dabbcoins_bought */\n      dup2\n        /* \"dabbcoin_ico.sol\":1284:1300  equity_dabbcoins */\n      0x3\n        /* \"dabbcoin_ico.sol\":1284:1310  equity_dabbcoins[investor] */\n      0x0\n        /* \"dabbcoin_ico.sol\":1301:1309  investor */\n      dup7\n        /* \"dabbcoin_ico.sol\":1284:1310  equity_dabbcoins[investor] */\n      0xffffffffffffffffffffffffffffffffffffffff\n      and\n      0xffffffffffffffffffffffffffffffffffffffff\n      and\n      dup2\n      mstore\n      0x20\n      add\n      swap1\n      dup2\n      mstore\n      0x20\n      add\n      0x0\n      keccak256\n      0x0\n        /* \"dabbcoin_ico.sol\":1284:1330  equity_dabbcoins[investor] += dabbcoins_bought */\n      dup3\n      dup3\n      sload\n      add\n      swap3\n      pop\n      pop\n      dup2\n      swap1\n      sstore\n      pop\n        /* \"dabbcoin_ico.sol\":1392:1407  inr_to_dabbcoin */\n      sload(0x1)\n        /* \"dabbcoin_ico.sol\":1365:1381  equity_dabbcoins */\n      0x3\n        /* \"dabbcoin_ico.sol\":1365:1391  equity_dabbcoins[investor] */\n      0x0\n        /* \"dabbcoin_ico.sol\":1382:1390  investor */\n      dup7\n        /* \"dabbcoin_ico.sol\":1365:1391  equity_dabbcoins[investor] */\n      0xffffffffffffffffffffffffffffffffffffffff\n      and\n      0xffffffffffffffffffffffffffffffffffffffff\n      and\n      dup2\n      mstore\n      0x20\n      add\n      swap1\n      dup2\n      mstore\n      0x20\n      add\n      0x0\n      keccak256\n      sload\n        /* \"dabbcoin_ico.sol\":1365:1407  equity_dabbcoins[investor]/inr_to_dabbcoin */\n      dup2\n      iszero\n      iszero\n      tag_35\n      jumpi\n      invalid\n    tag_35:\n      div\n        /* \"dabbcoin_ico.sol\":1341:1351  equity_inr */\n      0x4\n        /* \"dabbcoin_ico.sol\":1341:1361  equity_inr[investor] */\n      0x0\n        /* \"dabbcoin_ico.sol\":1352:1360  investor */\n      dup7\n        /* \"dabbcoin_ico.sol\":1341:1361  equity_inr[investor] */\n      0xffffffffffffffffffffffffffffffffffffffff\n      and\n      0xffffffffffffffffffffffffffffffffffffffff\n      and\n      dup2\n      mstore\n      0x20\n      add\n      swap1\n      dup2\n      mstore\n      0x20\n      add\n      0x0\n      keccak256\n      0x0\n        /* \"dabbcoin_ico.sol\":1341:1407  equity_inr[investor] += equity_dabbcoins[investor]/inr_to_dabbcoin */\n      dup3\n      dup3\n      sload\n      add\n      swap3\n      pop\n      pop\n      dup2\n      swap1\n      sstore\n      pop\n        /* \"dabbcoin_ico.sol\":1444:1460  dabbcoins_bought */\n      dup2\n        /* \"dabbcoin_ico.sol\":1418:1440  total_dabbcoins_bought */\n      0x2\n      0x0\n        /* \"dabbcoin_ico.sol\":1418:1460  total_dabbcoins_bought += dabbcoins_bought */\n      dup3\n      dup3\n      sload\n      add\n      swap3\n      pop\n      pop\n      dup2\n      swap1\n      sstore\n      pop\n        /* \"dabbcoin_ico.sol\":1105:1468  function buy_dabbcoins(address investor,uint inr_invested)external\r... */\n      pop\n      pop\n      pop\n      pop\n      jump\t// out\n        /* \"dabbcoin_ico.sol\":956:1073  function equity_in_inr(address investor)external constant returns(uint){\r... */\n    tag_20:\n        /* \"dabbcoin_ico.sol\":1022:1026  uint */\n      0x0\n        /* \"dabbcoin_ico.sol\":1045:1055  equity_inr */\n      0x4\n        /* \"dabbcoin_ico.sol\":1045:1065  equity_inr[investor] */\n      0x0\n        /* \"dabbcoin_ico.sol\":1056:1064  investor */\n      dup4\n        /* \"dabbcoin_ico.sol\":1045:1065  equity_inr[investor] */\n      0xffffffffffffffffffffffffffffffffffffffff\n      and\n      0xffffffffffffffffffffffffffffffffffffffff\n      and\n      dup2\n      mstore\n      0x20\n      add\n      swap1\n      dup2\n      mstore\n      0x20\n      add\n      0x0\n      keccak256\n      sload\n        /* \"dabbcoin_ico.sol\":1038:1065  return equity_inr[investor] */\n      swap1\n      pop\n        /* \"dabbcoin_ico.sol\":956:1073  function equity_in_inr(address investor)external constant returns(uint){\r... */\n      swap2\n      swap1\n      pop\n      jump\t// out\n        /* \"dabbcoin_ico.sol\":771:900  function equity_in_dabbcoins(address investor)external constant returns(uint){\r... */\n    tag_23:\n        /* \"dabbcoin_ico.sol\":843:847  uint */\n      0x0\n        /* \"dabbcoin_ico.sol\":866:882  equity_dabbcoins */\n      0x3\n        /* \"dabbcoin_ico.sol\":866:892  equity_dabbcoins[investor] */\n      0x0\n        /* \"dabbcoin_ico.sol\":883:891  investor */\n      dup4\n        /* \"dabbcoin_ico.sol\":866:892  equity_dabbcoins[investor] */\n      0xffffffffffffffffffffffffffffffffffffffff\n      and\n      0xffffffffffffffffffffffffffffffffffffffff\n      and\n      dup2\n      mstore\n      0x20\n      add\n      swap1\n      dup2\n      mstore\n      0x20\n      add\n      0x0\n      keccak256\n      sload\n        /* \"dabbcoin_ico.sol\":859:892  return equity_dabbcoins[investor] */\n      swap1\n      pop\n        /* \"dabbcoin_ico.sol\":771:900  function equity_in_dabbcoins(address investor)external constant returns(uint){\r... */\n      swap2\n      swap1\n      pop\n      jump\t// out\n        /* \"dabbcoin_ico.sol\":203:237  uint public inr_to_dabbcoin = 1000 */\n    tag_26:\n      sload(0x1)\n      dup2\n      jump\t// out\n        /* \"dabbcoin_ico.sol\":120:155  uint public max_dabbcoins = 1000000 */\n    tag_29:\n      sload(0x0)\n      dup2\n      jump\t// out\n\n    auxdata: 0xa165627a7a7230582041d9b5975c2e21de6527192a333813764ebed42ab4d56984171b24d3005c29e70029\n}\n",
				"bytecode": {
					"linkReferences": {},
					"object": "6080604052620f42406000556103e8600155600060025534801561002257600080fd5b5061053a806100326000396000f300608060405260043610610083576000357c0100000000000000000000000000000000000000000000000000000000900463ffffffff1680632194ad88146100885780633899c96d146100b357806373abaa03146101005780638e0068961461014d5780639c187b4b146101a4578063ac61c7ea146101fb578063b5ca8f1d14610226575b600080fd5b34801561009457600080fd5b5061009d610251565b6040518082815260200191505060405180910390f35b3480156100bf57600080fd5b506100fe600480360381019080803573ffffffffffffffffffffffffffffffffffffffff16906020019092919080359060200190929190505050610257565b005b34801561010c57600080fd5b5061014b600480360381019080803573ffffffffffffffffffffffffffffffffffffffff16906020019092919080359060200190929190505050610351565b005b34801561015957600080fd5b5061018e600480360381019080803573ffffffffffffffffffffffffffffffffffffffff169060200190929190505050610470565b6040518082815260200191505060405180910390f35b3480156101b057600080fd5b506101e5600480360381019080803573ffffffffffffffffffffffffffffffffffffffff1690602001909291905050506104b9565b6040518082815260200191505060405180910390f35b34801561020757600080fd5b50610210610502565b6040518082815260200191505060405180910390f35b34801561023257600080fd5b5061023b610508565b6040518082815260200191505060405180910390f35b60025481565b80600360008473ffffffffffffffffffffffffffffffffffffffff1673ffffffffffffffffffffffffffffffffffffffff16815260200190815260200160002060008282540392505081905550600154600360008473ffffffffffffffffffffffffffffffffffffffff1673ffffffffffffffffffffffffffffffffffffffff168152602001908152602001600020548115156102f057fe5b04600460008473ffffffffffffffffffffffffffffffffffffffff1673ffffffffffffffffffffffffffffffffffffffff16815260200190815260200160002060008282540192505081905550806002600082825403925050819055505050565b6000816000546002546001548302011115151561036d57600080fd5b6001548302915081600360008673ffffffffffffffffffffffffffffffffffffffff1673ffffffffffffffffffffffffffffffffffffffff16815260200190815260200160002060008282540192505081905550600154600360008673ffffffffffffffffffffffffffffffffffffffff1673ffffffffffffffffffffffffffffffffffffffff1681526020019081526020016000205481151561040d57fe5b04600460008673ffffffffffffffffffffffffffffffffffffffff1673ffffffffffffffffffffffffffffffffffffffff168152602001908152602001600020600082825401925050819055508160026000828254019250508190555050505050565b6000600460008373ffffffffffffffffffffffffffffffffffffffff1673ffffffffffffffffffffffffffffffffffffffff168152602001908152602001600020549050919050565b6000600360008373ffffffffffffffffffffffffffffffffffffffff1673ffffffffffffffffffffffffffffffffffffffff168152602001908152602001600020549050919050565b60015481565b600054815600a165627a7a7230582041d9b5975c2e21de6527192a333813764ebed42ab4d56984171b24d3005c29e70029",
					"opcodes": "PUSH1 0x80 PUSH1 0x40 MSTORE PUSH3 0xF4240 PUSH1 0x0 SSTORE PUSH2 0x3E8 PUSH1 0x1 SSTORE PUSH1 0x0 PUSH1 0x2 SSTORE CALLVALUE DUP1 ISZERO PUSH2 0x22 JUMPI PUSH1 0x0 DUP1 REVERT JUMPDEST POP PUSH2 0x53A DUP1 PUSH2 0x32 PUSH1 0x0 CODECOPY PUSH1 0x0 RETURN STOP PUSH1 0x80 PUSH1 0x40 MSTORE PUSH1 0x4 CALLDATASIZE LT PUSH2 0x83 JUMPI PUSH1 0x0 CALLDATALOAD PUSH29 0x100000000000000000000000000000000000000000000000000000000 SWAP1 DIV PUSH4 0xFFFFFFFF AND DUP1 PUSH4 0x2194AD88 EQ PUSH2 0x88 JUMPI DUP1 PUSH4 0x3899C96D EQ PUSH2 0xB3 JUMPI DUP1 PUSH4 0x73ABAA03 EQ PUSH2 0x100 JUMPI DUP1 PUSH4 0x8E006896 EQ PUSH2 0x14D JUMPI DUP1 PUSH4 0x9C187B4B EQ PUSH2 0x1A4 JUMPI DUP1 PUSH4 0xAC61C7EA EQ PUSH2 0x1FB JUMPI DUP1 PUSH4 0xB5CA8F1D EQ PUSH2 0x226 JUMPI JUMPDEST PUSH1 0x0 DUP1 REVERT JUMPDEST CALLVALUE DUP1 ISZERO PUSH2 0x94 JUMPI PUSH1 0x0 DUP1 REVERT JUMPDEST POP PUSH2 0x9D PUSH2 0x251 JUMP JUMPDEST PUSH1 0x40 MLOAD DUP1 DUP3 DUP2 MSTORE PUSH1 0x20 ADD SWAP2 POP POP PUSH1 0x40 MLOAD DUP1 SWAP2 SUB SWAP1 RETURN JUMPDEST CALLVALUE DUP1 ISZERO PUSH2 0xBF JUMPI PUSH1 0x0 DUP1 REVERT JUMPDEST POP PUSH2 0xFE PUSH1 0x4 DUP1 CALLDATASIZE SUB DUP2 ADD SWAP1 DUP1 DUP1 CALLDATALOAD PUSH20 0xFFFFFFFFFFFFFFFFFFFFFFFFFFFFFFFFFFFFFFFF AND SWAP1 PUSH1 0x20 ADD SWAP1 SWAP3 SWAP2 SWAP1 DUP1 CALLDATALOAD SWAP1 PUSH1 0x20 ADD SWAP1 SWAP3 SWAP2 SWAP1 POP POP POP PUSH2 0x257 JUMP JUMPDEST STOP JUMPDEST CALLVALUE DUP1 ISZERO PUSH2 0x10C JUMPI PUSH1 0x0 DUP1 REVERT JUMPDEST POP PUSH2 0x14B PUSH1 0x4 DUP1 CALLDATASIZE SUB DUP2 ADD SWAP1 DUP1 DUP1 CALLDATALOAD PUSH20 0xFFFFFFFFFFFFFFFFFFFFFFFFFFFFFFFFFFFFFFFF AND SWAP1 PUSH1 0x20 ADD SWAP1 SWAP3 SWAP2 SWAP1 DUP1 CALLDATALOAD SWAP1 PUSH1 0x20 ADD SWAP1 SWAP3 SWAP2 SWAP1 POP POP POP PUSH2 0x351 JUMP JUMPDEST STOP JUMPDEST CALLVALUE DUP1 ISZERO PUSH2 0x159 JUMPI PUSH1 0x0 DUP1 REVERT JUMPDEST POP PUSH2 0x18E PUSH1 0x4 DUP1 CALLDATASIZE SUB DUP2 ADD SWAP1 DUP1 DUP1 CALLDATALOAD PUSH20 0xFFFFFFFFFFFFFFFFFFFFFFFFFFFFFFFFFFFFFFFF AND SWAP1 PUSH1 0x20 ADD SWAP1 SWAP3 SWAP2 SWAP1 POP POP POP PUSH2 0x470 JUMP JUMPDEST PUSH1 0x40 MLOAD DUP1 DUP3 DUP2 MSTORE PUSH1 0x20 ADD SWAP2 POP POP PUSH1 0x40 MLOAD DUP1 SWAP2 SUB SWAP1 RETURN JUMPDEST CALLVALUE DUP1 ISZERO PUSH2 0x1B0 JUMPI PUSH1 0x0 DUP1 REVERT JUMPDEST POP PUSH2 0x1E5 PUSH1 0x4 DUP1 CALLDATASIZE SUB DUP2 ADD SWAP1 DUP1 DUP1 CALLDATALOAD PUSH20 0xFFFFFFFFFFFFFFFFFFFFFFFFFFFFFFFFFFFFFFFF AND SWAP1 PUSH1 0x20 ADD SWAP1 SWAP3 SWAP2 SWAP1 POP POP POP PUSH2 0x4B9 JUMP JUMPDEST PUSH1 0x40 MLOAD DUP1 DUP3 DUP2 MSTORE PUSH1 0x20 ADD SWAP2 POP POP PUSH1 0x40 MLOAD DUP1 SWAP2 SUB SWAP1 RETURN JUMPDEST CALLVALUE DUP1 ISZERO PUSH2 0x207 JUMPI PUSH1 0x0 DUP1 REVERT JUMPDEST POP PUSH2 0x210 PUSH2 0x502 JUMP JUMPDEST PUSH1 0x40 MLOAD DUP1 DUP3 DUP2 MSTORE PUSH1 0x20 ADD SWAP2 POP POP PUSH1 0x40 MLOAD DUP1 SWAP2 SUB SWAP1 RETURN JUMPDEST CALLVALUE DUP1 ISZERO PUSH2 0x232 JUMPI PUSH1 0x0 DUP1 REVERT JUMPDEST POP PUSH2 0x23B PUSH2 0x508 JUMP JUMPDEST PUSH1 0x40 MLOAD DUP1 DUP3 DUP2 MSTORE PUSH1 0x20 ADD SWAP2 POP POP PUSH1 0x40 MLOAD DUP1 SWAP2 SUB SWAP1 RETURN JUMPDEST PUSH1 0x2 SLOAD DUP2 JUMP JUMPDEST DUP1 PUSH1 0x3 PUSH1 0x0 DUP5 PUSH20 0xFFFFFFFFFFFFFFFFFFFFFFFFFFFFFFFFFFFFFFFF AND PUSH20 0xFFFFFFFFFFFFFFFFFFFFFFFFFFFFFFFFFFFFFFFF AND DUP2 MSTORE PUSH1 0x20 ADD SWAP1 DUP2 MSTORE PUSH1 0x20 ADD PUSH1 0x0 KECCAK256 PUSH1 0x0 DUP3 DUP3 SLOAD SUB SWAP3 POP POP DUP2 SWAP1 SSTORE POP PUSH1 0x1 SLOAD PUSH1 0x3 PUSH1 0x0 DUP5 PUSH20 0xFFFFFFFFFFFFFFFFFFFFFFFFFFFFFFFFFFFFFFFF AND PUSH20 0xFFFFFFFFFFFFFFFFFFFFFFFFFFFFFFFFFFFFFFFF AND DUP2 MSTORE PUSH1 0x20 ADD SWAP1 DUP2 MSTORE PUSH1 0x20 ADD PUSH1 0x0 KECCAK256 SLOAD DUP2 ISZERO ISZERO PUSH2 0x2F0 JUMPI INVALID JUMPDEST DIV PUSH1 0x4 PUSH1 0x0 DUP5 PUSH20 0xFFFFFFFFFFFFFFFFFFFFFFFFFFFFFFFFFFFFFFFF AND PUSH20 0xFFFFFFFFFFFFFFFFFFFFFFFFFFFFFFFFFFFFFFFF AND DUP2 MSTORE PUSH1 0x20 ADD SWAP1 DUP2 MSTORE PUSH1 0x20 ADD PUSH1 0x0 KECCAK256 PUSH1 0x0 DUP3 DUP3 SLOAD ADD SWAP3 POP POP DUP2 SWAP1 SSTORE POP DUP1 PUSH1 0x2 PUSH1 0x0 DUP3 DUP3 SLOAD SUB SWAP3 POP POP DUP2 SWAP1 SSTORE POP POP POP JUMP JUMPDEST PUSH1 0x0 DUP2 PUSH1 0x0 SLOAD PUSH1 0x2 SLOAD PUSH1 0x1 SLOAD DUP4 MUL ADD GT ISZERO ISZERO ISZERO PUSH2 0x36D JUMPI PUSH1 0x0 DUP1 REVERT JUMPDEST PUSH1 0x1 SLOAD DUP4 MUL SWAP2 POP DUP2 PUSH1 0x3 PUSH1 0x0 DUP7 PUSH20 0xFFFFFFFFFFFFFFFFFFFFFFFFFFFFFFFFFFFFFFFF AND PUSH20 0xFFFFFFFFFFFFFFFFFFFFFFFFFFFFFFFFFFFFFFFF AND DUP2 MSTORE PUSH1 0x20 ADD SWAP1 DUP2 MSTORE PUSH1 0x20 ADD PUSH1 0x0 KECCAK256 PUSH1 0x0 DUP3 DUP3 SLOAD ADD SWAP3 POP POP DUP2 SWAP1 SSTORE POP PUSH1 0x1 SLOAD PUSH1 0x3 PUSH1 0x0 DUP7 PUSH20 0xFFFFFFFFFFFFFFFFFFFFFFFFFFFFFFFFFFFFFFFF AND PUSH20 0xFFFFFFFFFFFFFFFFFFFFFFFFFFFFFFFFFFFFFFFF AND DUP2 MSTORE PUSH1 0x20 ADD SWAP1 DUP2 MSTORE PUSH1 0x20 ADD PUSH1 0x0 KECCAK256 SLOAD DUP2 ISZERO ISZERO PUSH2 0x40D JUMPI INVALID JUMPDEST DIV PUSH1 0x4 PUSH1 0x0 DUP7 PUSH20 0xFFFFFFFFFFFFFFFFFFFFFFFFFFFFFFFFFFFFFFFF AND PUSH20 0xFFFFFFFFFFFFFFFFFFFFFFFFFFFFFFFFFFFFFFFF AND DUP2 MSTORE PUSH1 0x20 ADD SWAP1 DUP2 MSTORE PUSH1 0x20 ADD PUSH1 0x0 KECCAK256 PUSH1 0x0 DUP3 DUP3 SLOAD ADD SWAP3 POP POP DUP2 SWAP1 SSTORE POP DUP2 PUSH1 0x2 PUSH1 0x0 DUP3 DUP3 SLOAD ADD SWAP3 POP POP DUP2 SWAP1 SSTORE POP POP POP POP POP JUMP JUMPDEST PUSH1 0x0 PUSH1 0x4 PUSH1 0x0 DUP4 PUSH20 0xFFFFFFFFFFFFFFFFFFFFFFFFFFFFFFFFFFFFFFFF AND PUSH20 0xFFFFFFFFFFFFFFFFFFFFFFFFFFFFFFFFFFFFFFFF AND DUP2 MSTORE PUSH1 0x20 ADD SWAP1 DUP2 MSTORE PUSH1 0x20 ADD PUSH1 0x0 KECCAK256 SLOAD SWAP1 POP SWAP2 SWAP1 POP JUMP JUMPDEST PUSH1 0x0 PUSH1 0x3 PUSH1 0x0 DUP4 PUSH20 0xFFFFFFFFFFFFFFFFFFFFFFFFFFFFFFFFFFFFFFFF AND PUSH20 0xFFFFFFFFFFFFFFFFFFFFFFFFFFFFFFFFFFFFFFFF AND DUP2 MSTORE PUSH1 0x20 ADD SWAP1 DUP2 MSTORE PUSH1 0x20 ADD PUSH1 0x0 KECCAK256 SLOAD SWAP1 POP SWAP2 SWAP1 POP JUMP JUMPDEST PUSH1 0x1 SLOAD DUP2 JUMP JUMPDEST PUSH1 0x0 SLOAD DUP2 JUMP STOP LOG1 PUSH6 0x627A7A723058 KECCAK256 COINBASE 0xd9 0xb5 SWAP8 0x5c 0x2e 0x21 0xde PUSH6 0x27192A333813 PUSH23 0x4EBED42AB4D56984171B24D3005C29E700290000000000 "
				},
				"gasEstimates": {
					"creation": {
						"codeDepositCost": "267600",
						"executionCost": "45324",
						"totalCost": "312924"
					},
					"external": {
						"buy_dabbcoins(address,uint256)": "62542",
						"equity_in_dabbcoins(address)": "647",
						"equity_in_inr(address)": "625",
						"inr_to_dabbcoin()": "504",
						"max_dabbcoins()": "526",
						"sell_dabcoins(address,uint256)": "61648",
						"total_dabbcoins_bought()": "394"
					}
				},
				"methodIdentifiers": {
					"buy_dabbcoins(address,uint256)": "73abaa03",
					"equity_in_dabbcoins(address)": "9c187b4b",
					"equity_in_inr(address)": "8e006896",
					"inr_to_dabbcoin()": "ac61c7ea",
					"max_dabbcoins()": "b5ca8f1d",
					"sell_dabcoins(address,uint256)": "3899c96d",
					"total_dabbcoins_bought()": "2194ad88"
				}
			},
			"userdoc": {
				"methods": {}
			}
		}
	}
}